S01300007270692D70732D636F64652E73726563EE
S11300000EC01DC01DC01BC01AC019C018C017C027
S113001016C015C014C013C012C011C010C01124E2
S11300201FBECFE5D2E0DEBFCDBF20E0A0E6B0E04A
S113003001C01D92A236B207E1F71ED03BC0E0CF4B
S11300401F920F920FB60F9211248F93B09905C08F
S113005081E080936100C19A02C0109261008F9187
S11300600F900FBE0F901F9018958BB780628BBFB7
S1130070A89AAA9A78940895B898BA98B99AF5DF84
S1130080809160008823F1F310926000F89485B7A2
S1130090877E806185BF85B7806285BF85B78468A8
S11300A085BF8B7F85BF7894889585B78F7D85BF05
S10B00B07894E6CFF894FFCF29
S9030000FC
