:100000000EC056C031C01BC01AC019C018C017C0DE
:1000100016C015C014C013C012C011C010C01124E6
:100020001FBECFE5D2E0DEBFCDBF20E0A0E6B0E04E
:1000300001C01D92A136B207E1F773D078C0E0CFBE
:10004000F89485B7877E806185BF85B7806285BF5C
:1000500085B7846885BF8B7F85BF7894889585B781
:100060008F7D85BF789408951F920F920FB60F92DF
:1000700011242F938F939F93B09910C02FE986E896
:1000800091E0215080409040E1F700C00000B0991D
:1000900007C081E080936000C19A02C010926000A6
:1000A0009F918F912F910F900FBE0F901F901895D9
:1000B0001F920F920FB60F9211242F933F934F93DD
:1000C0005F936F937F938F939F93AF93BF93EF93C0
:1000D000FF93B29B06C080916000811102C0C1985D
:1000E000AFDFFF91EF91BF91AF919F918F917F9182
:1000F0006F915F914F913F912F910F900FBE0F9095
:100100001F9018958BB780628BBF8BB780648BBFB5
:10011000A89A85B7816085BF85B7826085BF7894CE
:100120000895B898BA98B99AEDDF8ADFFFCFF894AE
:02013000FFCFFF
:00000001FF
